:100000000C94DF000C9407010C9407010C94070179
:100010000C9407010C9407010C9407010C94070140
:100020000C9407010C9407010C9407010C94BF0574
:100030000C9407010C9407010C9407010C94070120
:100040000C9475050C9407010C9443050C941D0544
:100050000C9407010C9407010C9407010C94070100
:100060000C9407010C94070100407A10F35A00A089
:10007000724E18090010A5D4E80000E87648170071
:1000800000E40B54020000CA9A3B000000E1F505B1
:10009000000080969800000040420F000000A086FB
:1000A00001000000102700000000E803000000002D
:1000B0006400000000000A000000000001000000D1
:1000C00000002C76D888DC674F0823DFC1DFAE59EB
:1000D000E1B1B796E5E3E453C63AE651997696E87E
:1000E000E6C28426EB898C9B62ED407C6FFCEFBC02
:1000F0009C9F40F2BAA56FA5F490055A2AF75C932D
:100100006B6CF9676DC11BFCE0E40D47FEF520E662
:10011000B500D0ED902E0300943577050080841E45
:10012000080000204E0A000000C80C333333330FA0
:10013000986E12831141EF8D2114893BE65516CF3D
:10014000FEE6DB18D1844B381BF77C1D901DA4BB49
:10015000E424203284725E228100C9F124ECA1E5FE
:100160003D270000000023002600290000000008B1
:10017000000201000003040700000000000000006E
:1001800000000000250028002B00000000002400D3
:1001900027002A00040404040404040402020202E6
:1001A000020203030303030301020408102040803A
:1001B0000102040810200102040810207406112412
:1001C0001FBECFEFD8E0DEBFCDBF22E0A6E8B1E092
:1001D00001C01D92A738B207E1F711E0A0E0B1E03D
:1001E000E2E5FFE102C005900D92A638B107D9F70C
:1001F00010E0CFEDD0E004C02197FE010E94AF0DCA
:10020000CE3DD107C9F70E9412070C94A70F0C949A
:100210000000E5EBF1E02491E1EAF1E0849188232C
:1002200099F090E0880F991FFC01E657FE4FA591C9
:10023000B491FC01E058FE4F859194918FB7F894EA
:10024000EC91E22BEC938FBFF89410928000109207
:10025000810080918100886080938100809181007D
:1002600082608093810080E29EE490938900809375
:10027000880080916F00826080936F007894089569
:10028000AF92BF92CF92DF92EF92FF920F931F93A4
:10029000CF93DF93DC0128E030E081E0AA24AA9428
:1002A000B12C0FE010E043E2E42EF12C57EDC52E07
:1002B000D12C9C911196ED91FC911297592F50954C
:1002C000462F4823A1F1F89442814523428341817E
:1002D000492B4183E7012197F1F74281942B9283C7
:1002E0007894F6013197F1F7880F2150310909F719
:1002F000F8941196ED91FC91129791818C918095D3
:10030000892381831196ED91FC91129792818C91B2
:100310008095892382837894DF91CF911F910F91EB
:10032000FF90EF90DF90CF90BF90AF900895F8943A
:100330004281452342834181492B4183E501219735
:10034000F1F74281942B92837894F801CBCFAF924E
:10035000BF92CF92DF92EF92FF920F931F93CF93B2
:10036000DF936C017B018B01040F151FEB015E0114
:10037000AE18BF08C017D10759F06991D601ED91A9
:10038000FC910190F081E02DC6010995892B79F748
:10039000C501DF91CF911F910F91FF90EF90DF90FA
:1003A000CF90BF90AF900895FC01538D448D252FC1
:1003B00030E0842F90E0821B930B541710F0CF96FF
:1003C000089501970895FC01918D828D981761F031
:1003D000A28DAE0FBF2FB11D5D968C91928D9F5F48
:1003E0009F73928F90E008958FEF9FEF0895FC0127
:1003F000918D828D981731F0828DE80FF11D858DDA
:1004000090E008958FEF9FEF0895FC01918D228D6C
:10041000892F90E0805C9F4F821B91098F739927F1
:10042000089586EB91E00E94050221E0892B09F4F2
:1004300020E0822F089580E090E0892B29F00E942F
:10044000110281110C9400000895FC01A48DA80FE5
:10045000B92FB11DA35ABF4F2C91848D90E0019606
:100460008F739927848FA689B7892C93A089B18926
:100470008C91837080648C93938D848D981306C0C7
:100480000288F389E02D80818F7D80830895EF922B
:10049000FF920F931F93CF93DF93EC0181E0888F3E
:1004A0009B8D8C8D98131AC0E889F989808185FF0E
:1004B00015C09FB7F894EE89FF896083E889F989B0
:1004C00080818370806480839FBF81E090E0DF91B2
:1004D000CF911F910F91FF90EF900895F62E0B8D05
:1004E00010E00F5F1F4F0F731127E02E8C8D8E11C0
:1004F0000CC00FB607FCFACFE889F989808185FF27
:10050000F5CFCE010E942502F1CFEB8DEC0FFD2F30
:10051000F11DE35AFF4FF0829FB7F8940B8FEA89E1
:10052000FB8980818062CFCFCF93DF93EC01888DF0
:100530008823B9F0AA89BB89E889F9898C9185FD5E
:1005400003C0808186FD0DC00FB607FCF7CF8C91EC
:1005500085FFF2CF808185FFEDCFCE010E9425027D
:10056000E9CFDF91CF9108953FB7F8948091A5012D
:100570009091A601A091A701B091A80126B5A89BD2
:1005800005C02F3F19F00196A11DB11D3FBFBA2F25
:10059000A92F982F8827BC01CD01620F711D811DE5
:1005A000911D42E0660F771F881F991F4A95D1F76A
:1005B00008958F929F92AF92BF92CF92DF92EF9267
:1005C000FF924B015C010E94B4026B017C010E940E
:1005D000B4026C197D098E099F09683E734081053C
:1005E0009105A8F321E0821A9108A108B10888EECC
:1005F000C80E83E0D81EE11CF11C81149104A104F3
:10060000B10429F7FF90EF90DF90CF90BF90AF90AB
:100610009F908F900895AF92BF92CF92DF92EF920A
:10062000FF920F931F93CF93DF93DC0128E030E01C
:1006300080E041E067E070E093E2A92EB12C0FEC7E
:1006400010E09C911196ED91FC911297F8945181D4
:10065000592B5183F280E92EE094FE20F282EB01C7
:100660002197F1F751815E215183E5012197F1F73F
:1006700050817894F8013197F1F7952309F0842B94
:10068000440F21503109E9F6DF91CF911F910F916D
:10069000FF90EF90DF90CF90BF90AF900895FC0156
:1006A00090810180F281E02DF8948181292F20959D
:1006B0008223818378943DE743E050E0315029F173
:1006C000DA011197F1F780818923C1F3F8948281CF
:1006D000822382838181892B81837894ABE7B7E081
:1006E0001197F1F7F894818182238183A3E1B1E02E
:1006F0001197F1F78081982381E009F080E07894E8
:10070000E3E6F6E03197F1F7089580E00895CF939E
:10071000DF9380919C01811155C04AEA51E0FA01B2
:10072000649186E991E0FC0124912223C1F030E03C
:10073000220F331FF901E657FE4FA591B491F9013D
:10074000E058FE4FC591D4917FB7F8943C91262F85
:10075000209532233C933881232328837FBFFA01DD
:10076000449140938601FC018491E82FF0E0EE0F64
:10077000FF1FEE59FE4F85919491909388018093CD
:1007800087011092910110929301109292011092A0
:10079000900110928F0110928E0110928D01109293
:1007A0008C0110928B0110928A0110928901109293
:1007B00098011092990110929A0110929B0181E088
:1007C00080939C0186E891E0DF91CF91089542E00B
:1007D00050E068E171E086EB91E00C94A701CF93C3
:1007E000DF93FC0101900020E9F73197AF01481B2E
:1007F000590BBC0186EB91E00E94A701EC010E941D
:10080000E7038C0F9D1FDF91CF9108950F931F93E6
:10081000CF93DF93EC0188819981009759F02A8169
:100820003B812617370730F081E0DF91CF911F9190
:100830000F9108958B016F5F7F4F0E94DA0E009732
:1008400059F0998388831B830A832C813D81232B54
:1008500059F7FC011082E8CF80E0E7CFCF93DF9318
:10086000EC0188819981009711F00E94510E198244
:1008700018821D821C821B821A82DF91CF910895FB
:100880000F931F93CF93DF93EC010C811D810F5FBA
:100890001F4FB8010E940604882391F028813981F6
:1008A0008C819D816BE171E0820F931F0E94A00FEC
:1008B0001D830C83CE01DF91CF911F910F9108957D
:1008C000CE010E942E04F6CFEF92FF920F931F935A
:1008D000CF93DF93EC017B01198218821B821A826D
:1008E0001D821C82FB0101900020E9F731978F01E6
:1008F000061B170BB8010E940604811109C0CE0126
:10090000DF91CF911F910F91FF90EF900C942E04E7
:100910001D830C83B70188819981DF91CF911F914D
:100920000F91FF90EF900C94A00FCF92DF92EF9277
:10093000FF920F931F93CF93DF93CDB7DEB7A197AD
:100940000FB6F894DEBF0FBECDBF7C01CB01BA015C
:10095000F7011182108213821282158214828E0195
:100960000F5F1F4F22E044E00E948D096C01009749
:1009700071F0FC0101900020E9F731978F01081B0D
:10098000190BB801C7010E940604811112C0C701EA
:100990000E942E04A1960FB6F894DEBF0FBECDBF05
:1009A000DF91CF911F910F91FF90EF90DF90CF904B
:1009B0000895F70115830483B601808191810E9417
:1009C000A00FE8CFEF92FF920F931F93CF93DF9387
:1009D000EC01FB01E080F180E114F10411F10481EC
:1009E000158101151105A9F08C819D81080F191F32
:1009F000B801CE010E940604882399F0288139812C
:100A00008C819D81B701820F931F0E94A00F1D83CF
:100A10000C83CE01DF91CF911F910F91FF90EF904A
:100A20000895CE010E942E04F4CFFC0180819181B3
:100A3000009711F00C94510E08951F920F920FB66B
:100A40000F9211242F933F934F935F936F937F9354
:100A50008F939F93AF93BF93EF93FF9386EB91E0B8
:100A60000E942502FF91EF91BF91AF919F918F91CD
:100A70007F916F915F914F913F912F910F900FBE9A
:100A80000F901F9018951F920F920FB60F9211247E
:100A90002F938F939F93EF93FF93E091C601F09173
:100AA000C7018081E091CC01F091CD0182FD1BC096
:100AB00090818091CF018F5F8F732091D001821739
:100AC00041F0E091CF01F0E0EA54FE4F958F809322
:100AD000CF01FF91EF919F918F912F910F900FBEBA
:100AE0000F901F9018958081F4CF1F920F920FB630
:100AF0000F9211242F933F938F939F93AF93BF93A4
:100B00008091B1019091B201A091B301B091B40173
:100B10003091A40123E0230F2D3758F50196A11D34
:100B2000B11D2093A4018093B1019093B201A093D1
:100B3000B301B093B4018091A5019091A601A09159
:100B4000A701B091A8010196A11DB11D8093A50137
:100B50009093A601A093A701B093A801BF91AF9174
:100B60009F918F913F912F910F900FBE0F901F90EB
:100B7000189526E8230F0296A11DB11DD2CF1F9212
:100B80000F920FB60F921124BF92CF92DF92EF9285
:100B9000FF920F931F932F933F934F935F936F9306
:100BA0007F938F939F93AF93BF93CF93DF93EF93F5
:100BB000FF938091A901811105C00E94090181E084
:100BC0008093A90180915702811103C081E0809335
:100BD0005702C0905302D0905402E0905502F0901A
:100BE00056026091B501D1E0D60FD093B501E9E787
:100BF000F1E08491E5EBF1E0C491E1EAF1E0E49108
:100C0000EE23A1F1882359F0833009F454C008F091
:100C100047C0813009F455C0823009F456C0F0E075
:100C2000EE0FFF1FE058FE4F05911491BFB6F894E8
:100C300020E030E04FE753E4C701B6010E94480CC2
:100C40006B017C016D2F70E090E080E00E94E90B69
:100C50009B01AC01C701B6010E94AA0DD801EC911D
:100C600087FF40C0C095CE23CC93BFBEFF91EF91CC
:100C7000DF91CF91BF91AF919F918F917F916F91B4
:100C80005F914F913F912F911F910F91FF90EF90A6
:100C9000DF90CF90BF900F900FBE0F901F901895D0
:100CA0008730B1F08830D1F0843009F0B8CF80912E
:100CB00080008F7D03C0809180008F7780938000BB
:100CC000AECF84B58F7784BDAACF84B58F7DFBCF9F
:100CD0008091B0008F778093B000A1CF8091B00059
:100CE0008F7DF9CFCE2BC0CF1092B9011092B801F1
:100CF00088EE93E0A0E0B0E08093BA019093BB014E
:100D0000A093BC01B093BD018AE091E09093B7013C
:100D10008093B60185EC90E09093C3018093C2016B
:100D200084EC90E09093C5018093C40180EC90E046
:100D30009093C7018093C60181EC90E09093C90124
:100D40008093C80182EC90E09093CB018093CA011C
:100D500086EC90E09093CD018093CC011092CF016E
:100D60001092D0011092D1011092D2010E948703FB
:100D700020915702211103C021E020935702909344
:100D8000600280935F0283E592E090936202809319
:100D9000610280E090E0A0EEB1E480936302909362
:100DA0006402A0936502B093660286E696E6A6EE1C
:100DB000BEE38093670290936802A0936902B093A8
:100DC0006A0210926B0210926C0210926D021092E5
:100DD0006E0210926F0210927002109271021092C5
:100DE00072021092730210927402109275021092A5
:100DF0007602109277021092780210927902109285
:100E00007A0210927B0210927C0210927D02109264
:100E10007E0210927F021092800210928102109244
:100E200082020895CF93DF93CDB7DEB7AE970FB6AA
:100E3000F894DEBF0FBECDBF789484B5826084BDC8
:100E400084B5816084BD85B5826085BD85B58160CE
:100E500085BD80916E00816080936E00109281004C
:100E60008091810082608093810080918100816007
:100E700080938100809180008160809380008091C8
:100E8000B10084608093B1008091B0008160809354
:100E9000B00080917A00846080937A0080917A001B
:100EA000826080937A0080917A00816080937A00DA
:100EB00080917A00806880937A001092C100E0915E
:100EC000C601F091C70182E08083E091C601F091F4
:100ED000C7011082E091C201F091C3011082E0913C
:100EE000C401F091C50180E180831092CE01E091B0
:100EF000CA01F091CB0186E08083E091C801F091B6
:100F0000C901808180618083E091C801F091C901AD
:100F1000808188608083E091C801F091C90180815F
:100F200080688083E091C801F091C90180818F7D44
:100F300080838091A901811105C00E94090181E08F
:100F40008093A90190E0292E90E0392E86EB91E064
:100F50000E940502181619067CF486EB91E00E94A7
:100F6000E3018335910541F48DE191E00E94EF03A7
:100F700088E291E00E94EF030E9487038C010E94A7
:100F80004F036CECC8010E94400164E4C8010E9458
:100F9000400168EE73E080E090E00E94D902C80151
:100FA0000E944F036CECC8010E9440016EEBC80127
:100FB0000E944001C8010E940B03F82EC8010E9444
:100FC0000B03782F6F2D072E000C880B990B0E94B6
:100FD000E90B20E030E040E85DE30E94480CD801D6
:100FE0001E966D937D938D939C9351972FB7F89494
:100FF0008091B1019091B201A091B301B091B4017F
:101000002FBFF801828B938BA48BB58BE0915F028D
:10101000F09160020091610210916202E23F2FEFB5
:10102000F20709F46DC126853785408951896091A1
:1010300063027091640280916502909166020E9441
:101040003D0D6B017C012091670230916802409157
:10105000690250916A020E94480C4B015C01809227
:10106000730290927402A0927502B092760220915F
:101070006B0230916C0240916D0250916E02C7017B
:10108000B6010E94480C209177023091780240917D
:10109000790250917A020E943E0D6BA77CA78DA722
:1010A0009EA7609377027093780280937902909361
:1010B0007A0240907F02509080026090810270908E
:1010C000820220E030E0A901C301B2010E94E20BDC
:1010D0008823D1F0A3019201C701B6010E943D0D02
:1010E0009B01AC0160916F0270917002809171025E
:1010F000909172020E94480C60937B0270937C0274
:1011000080937D0290937E02C0927F02D0928002F3
:10111000E0928102F09282022BA53CA54DA55EA52E
:10112000C501B4010E943E0D20917B0230917C02EA
:1011300040917D0250917E020E943E0D6B017C0128
:1011400020E030E0A9010E94AA0D18160CF0D4C0CE
:1011500020E030E040E85FE3C701B6010E94E20B07
:1011600087FD06C0C12CD12C80E8E82E8FE3F82E35
:10117000D801CD92DD92ED92FC9213970E948703E5
:10118000823FFFEF9F0709F4C1C0DC011E964D911D
:101190005D916D917C915197CE0185960E94950449
:1011A00040917B0250917C0260917D0270917E02A1
:1011B000CE0101960E9495044091770250917802E9
:1011C0006091790270917A02CE0107960E9495048F
:1011D0004091730250917402609175027091760291
:1011E000CE010D960E94950480915702811103C093
:1011F000B1E0B09357024091530250915402609174
:10120000550270915602CE0143960E94950440917A
:101210006302509164026091650270916602CE0192
:1012200049960E94950464E871E0CE014F960E94B1
:101230006404BE016B5D7F4FCE014F960E94E204B5
:101240000E944004BE01675E7F4F0E94E2040E943C
:101250004004BE016D5E7F4F0E94E2040E94400484
:10126000BE01635F7F4F0E94E2040E944004BE0102
:10127000695F7F4F0E94E2040E944004BE016F5FDD
:101280007F4F0E94E204FC0144815581608171819D
:1012900086EB91E00E94A7010E94E703CE014F96E2
:1012A0000E941505CE0149960E941505CE01439670
:1012B0000E941505CE010D960E941505CE010796D8
:1012C0000E941505CE0101960E94150564E670E0A6
:1012D00080E090E00E94D902CE0185960E9415051B
:1012E0002114310409F432CE0E941102882309F43A
:1012F0002DCE0E9400002ACEC12CD12C760138CFF1
:10130000F801108211821282138238CF62E871E0F4
:10131000CE0185960E94640443CFEF920F931F93F2
:10132000CF93DF93E80134E047FD34E1042E000C55
:10133000550B57FF03C0519541955109E32E022FDC
:10134000242FAE010E94AB09CE01DF91CF911F91F6
:101350000F91EF900895A9E0B0E0E1EBF9E00C9473
:101360000C0D6A01F22EB02E102FFBE3AF2EA0164B
:1013700008F41BE31F5F012F27E0AE014F5F5F4FB3
:101380000E940A0BBC018981982F9970913009F451
:101390003FC09BE2E1FC04C09E2D9170E0FC3AC08E
:1013A0005E2D5071E82FE87083FF46C084E09111F4
:1013B00001C083E0EF2DE81B8F1508F0E0E0D601B7
:1013C0008E2F20E2552351F1992329F0D6019C93C9
:1013D000C60101966C0196012D5F3F4FE2FE24C0CD
:1013E0008EE4D6018C9391E411969C9311971296FA
:1013F0008C93D9018E2F90E281111BC0E20FF32F45
:10140000F11D10828EEF9FEF2996ECE00C94280DD1
:101410009DE2C6CF90E2C4CF2D9381508111FCCFC5
:10142000CE0ED11CE0E0D0CF8EE6D6018C9391E6B3
:10143000DBCF9D938150E0CF482F447082FF3DC0A9
:1014400084E0911101C083E08F1510F4EF2DE81BAB
:10145000D6018E2F20E2552309F1992329F0D601D8
:101460009C93C60101966C0196012D5F3F4FE2FEF1
:101470001BC089E4D6018C938EE411968C9311974E
:1014800086E412968C93D9018E2F90E2882309F47A
:10149000B5CF9D938150FACF2D9381508111FCCF10
:1014A000CE0ED11CE0E0D9CF89E6D6018C938EE632
:1014B00011968C93119786E6E4CF9B0177FF02C0CB
:1014C00030E020E0A1E0B0E0911102C0B0E0A0E087
:1014D000F9013196AE0FBF1F8B2C912CBB2009F464
:1014E00061C05401EFEFAE1ABE0AAA0DBB1DFA1679
:1014F0001B0619F014F04F2D4A1B511188C0E3FC54
:1015000059C07601A42FB0E2A1114FC0C40ED11C66
:10151000992309F45BC040E0D6011196F60190834F
:101520006D01552309F448C0012F060F9A81582FE9
:10153000507184FF03C0913309F4015010160CF070
:1015400047C0093008F008E0EEE2FE2E5B01A01A69
:10155000B10885019194819491082F3F320729F4B5
:10156000D601FC92F60131966F016217730794F170
:10157000021713077CF5DB01A21BB30BAA24A3946B
:10158000B12CAC0EBD1EAA0DBB1D11968C91215025
:101590003109D601119628153905F4F0F60180833A
:1015A0006D01DBCFB12CA12CA0CFF701B1937F014E
:1015B000A150AACF9111B0CFD601942F50E302C011
:1015C0005D9391509111FCCFC40ED11C40E0ACCF83
:1015D00001E0BACF80E3DBCF6217730731F49633B3
:1015E00088F4953311F4552369F0F6018083FD01E9
:1015F000842F90E2811108C0A40FB11D1C9290E0CD
:1016000080E002CF81E3F1CF91938150F3CF91112C
:1016100083CF8ACF283008F027E03327DA01990FEB
:10162000311D87FD916000966105710539F43260C6
:101630002E5F3D9330E32A95E1F708959F3F30F008
:1016400080387105610509F03C5F3C5F3D93913046
:1016500008F08068911DDF93CF931F930F93FF9243
:10166000EF92192F987F9695E92F96959695E90F09
:10167000FF27EE53FF4F99273327EE24FF24A701BE
:10168000E70105900894079428F4360FE71EF81E2A
:10169000491F511D660F771F881F991F0694A1F7D8
:1016A0000590079428F4E70EF81E491F561FC11D28
:1016B000770F881F991F661F0694A1F7059007945E
:1016C00028F4F80E491F561FC71FD11D880F991FF8
:1016D000661F771F0694A1F70590079420F4490F21
:1016E000561FC71FD81F990F661F771F881F0694A4
:1016F000A9F784911095177041F0D695C795579525
:101700004795F794E7941A95C1F7E8E6F0E06894F6
:101710001590159135916591959105907FE273959E
:10172000E118F10A430B560BC90BD009C0F7E10CC5
:10173000F11E431F561FC91FD01D7EF4703311F4D4
:101740008A95E6CFE894015030F0080F0AF400279C
:10175000021708F4202F2395022F7A3328F079E31B
:101760007D932A95E9F710C07D932A9589F6069412
:1017700097956795379517951794E118F10A430BDC
:10178000560BC90BD00998F023957E9173957A3347
:1017900008F070E37C932013B8F77E9170617D931D
:1017A00030F0839571E37D9370E32A95E1F711247E
:1017B000EF90FF900F911F91CF91DF91992787FDB7
:1017C000909508950E94240C08F481E00895E8940F
:1017D00009C097FB3EF490958095709561957F4F79
:1017E0008F4F9F4F9923A9F0F92F96E9BB27939527
:1017F000F695879577956795B795F111F8CFFAF437
:10180000BB0F11F460FF1BC06F5F7F4F8F4F9F4F67
:1018100016C0882311F096E911C0772321F09EE8C5
:10182000872F762F05C0662371F096E8862F70E02B
:1018300060E02AF09A95660F771F881FDAF7880F05
:101840009695879597F90895990F0008550FAA0B5B
:10185000E0E8FEEF16161706E807F907C0F01216C3
:101860001306E407F50798F0621B730B840B950BC6
:1018700039F40A2661F0232B242B252B21F408951B
:101880000A2609F4A140A6958FEF811D811D0895B8
:101890000E945B0C0C94CC0C0E94BE0C38F00E9491
:1018A000C50C20F0952311F00C94B50C0C94BB0CD6
:1018B00011240C94000D0E94DD0C70F3959FC1F370
:1018C000950F50E0551F629FF001729FBB27F00DEE
:1018D000B11D639FAA27F00DB11DAA1F649F662743
:1018E000B00DA11D661F829F2227B00DA11D621F92
:1018F000739FB00DA11D621F839FA00D611D221F4C
:10190000749F3327A00D611D231F849F600D211D2F
:10191000822F762F6A2F11249F5750409AF0F1F0B2
:1019200088234AF0EE0FFF1FBB1F661F771F881F1B
:1019300091505040A9F79E3F510580F00C94B50C92
:101940000C94000D5F3FE4F3983ED4F386957795B1
:101950006795B795F795E7959F5FC1F7FE2B880FC1
:10196000911D9695879597F9089597F99F6780E857
:1019700070E060E008959FEF80EC089500240A94E1
:101980001616170618060906089500240A9412165A
:101990001306140605060895092E0394000C11F48D
:1019A000882352F0BB0F40F4BF2B11F460FF04C03A
:1019B0006F5F7F4F8F4F9F4F089557FD9058440F93
:1019C000551F59F05F3F71F04795880F97FB991F9E
:1019D00061F09F3F79F0879508951216130614065B
:1019E000551FF2CF4695F1DF08C0161617061806E8
:1019F000991FF1CF86957105610508940895E894C3
:101A0000BB2766277727CB0197F908952F923F923E
:101A10004F925F926F927F928F929F92AF92BF92FE
:101A2000CF92DF92EF92FF920F931F93CF93DF93AA
:101A3000CDB7DEB7CA1BDB0B0FB6F894DEBF0FBE07
:101A4000CDBF09942A88398848885F846E847D8454
:101A50008C849B84AA84B984C884DF80EE80FD8056
:101A60000C811B81AA81B981CE0FD11D0FB6F894CC
:101A7000DEBF0FBECDBFED0108955058BB27AA278A
:101A80000E94550D0C94CC0C0E94BE0C38F00E94A4
:101A9000C50C20F039F49F3F19F426F40C94BB0CCC
:101AA0000EF4E095E7FB0C94B50CE92F0E94DD0CD9
:101AB00058F3BA17620773078407950720F079F483
:101AC000A6F50C94FF0C0EF4E0950B2EBA2FA02D6A
:101AD0000B01B90190010C01CA01A0011124FF27DB
:101AE000591B99F0593F50F4503E68F11A16F040D6
:101AF000A22F232F342F4427585FF3CF46953795D5
:101B00002795A795F0405395C9F77EF41F16BA0B99
:101B1000620B730B840BBAF09150A1F0FF0FBB1F47
:101B2000661F771F881FC2F70EC0BA0F621F731F90
:101B3000841F48F4879577956795B795F7959E3FED
:101B400008F0B0CF9395880F08F09927EE0F97957E
:101B5000879508950E94240C08F48FEF0895EE0FE6
:101B6000FF1F0590F491E02D09940F931F93CF93DD
:101B7000DF938230910510F482E090E0E0918502DD
:101B8000F091860230E020E0B0E0A0E0309799F4D8
:101B90002115310509F44AC0281B390B24303105C1
:101BA000D8F58A819B816115710589F1FB019383C9
:101BB0008283FE0111C04081518102811381481747
:101BC0005907E0F04817590799F4109761F01296F9
:101BD0000C93129713961C933296CF01DF91CF91FD
:101BE0001F910F9108950093850210938602F4CF00
:101BF0002115310551F04217530738F0A901DB01D7
:101C00009A01BD01DF01F801C1CFEF01F9CF909337
:101C1000860280938502CDCFFE01E20FF31F8193F0
:101C200091932250310939832883D7CF20918302A1
:101C300030918402232B41F4209102013091030161
:101C4000309384022093830220910001309101019E
:101C50002115310541F42DB73EB740910401509153
:101C60000501241B350BE0918302F0918402E217F9
:101C7000F307A0F42E1B3F0B2817390778F0AC01AF
:101C80004E5F5F4F2417350748F04E0F5F1F50938C
:101C9000840240938302819391939FCFF0E0E0E030
:101CA0009CCFCF93DF930097E9F0FC01329713822A
:101CB0001282A0918502B0918602ED0130E020E011
:101CC0001097A1F420813181820F931F209183020C
:101CD000309184022817390709F061C0F09384021B
:101CE000E0938302DF91CF910895EA01CE17DF07D9
:101CF000E8F54A815B819E0141155105B1F7E90183
:101D0000FB83EA8349915991C40FD51FEC17FD0756
:101D100061F4808191810296840F951FE901998376
:101D20008883828193819B838A83F0E0E0E012962E
:101D30008D919C9113970097B9F52D913C91119736
:101D4000CD010296820F931F20918302309184026D
:101D50002817390739F6309751F5109286021092FC
:101D60008502B0938402A0938302BCCFD383C28345
:101D700040815181840F951FC817D90761F44E5FC8
:101D80005F4F88819981480F591F518340838A8111
:101D90009B81938382832115310509F0B0CFF093A5
:101DA0008602E09385029ECFFD01DC01C0CF138245
:101DB0001282D7CFB0E0A0E0E0EEFEE00C94080D78
:101DC0008C01009751F4CB010E94B50D8C01C80124
:101DD000CDB7DEB7E0E10C94240DFC01E60FF71F50
:101DE0009C0122503109E217F30708F49DC0D90184
:101DF000CD91DC911197C617D70798F0C530D10562
:101E000030F3CE0104978617970708F3C61BD70B4C
:101E10002297C193D1936D937C93CF010E94510E71
:101E2000D6CF5B01AC1ABD0A4C018C0E9D1EA09151
:101E30008502B0918602512C412CF12CE12C109797
:101E400031F580918302909184028815990509F0FB
:101E50005CC04616570608F058C08091000190916A
:101E60000101009741F48DB79EB740910401509154
:101E70000501841B950BE817F90708F055C0F0938E
:101E80008402E0938302F90171836083A0CF8D9176
:101E90009C91119712966C90129713967C901397C1
:101EA000A815B90559F56C0142E0C40ED11CCA143D
:101EB000DB0420F1AC014A195B09DA01129615978F
:101EC00080F06282738251834083D9016D937C9349
:101ED000E114F10471F0D7011396FC93EE9312977D
:101EE00076CF22968C0F9D1FF90191838083F30199
:101EF000EFCFF0938602E093850269CF481659062A
:101F000008F42C017D01D3019ACFCB010E94B50DBD
:101F10007C01009749F0AE01B8010E94970FC801FB
:101F20000E94510E870153CF10E000E050CFFB011B
:101F3000DC0102C001900D9241505040D8F7089545
:101F4000FB01DC0101900D920020E1F70895F89467
:021F5000FFCFC1
:101F5200000087028000000000004702A701D401B0
:101F620094020502E301F7010D0A003B00244E240E
:101F72003B426F696C6572002443243B74656D704B
:101F8200657261747572653B74656D7065726174BA
:101F92007572655F726571756972653B68656174BA
:101FA20065723B7069645F70726F706F7274696F93
:101FB2006E616C3B7069645F696E74656772616CB7
:101FC2003B7069645F646966666572656E746961B7
:061FD2006C002D0024004C
:107800000C94343C0C94513C0C94513C0C94513CE1
:107810000C94513C0C94513C0C94513C0C94513CB4
:107820000C94513C0C94513C0C94513C0C94513CA4
:107830000C94513C0C94513C0C94513C0C94513C94
:107840000C94513C0C94513C0C94513C0C94513C84
:107850000C94513C0C94513C0C94513C0C94513C74
:107860000C94513C0C94513C11241FBECFEFD8E036
:10787000DEBFCDBF11E0A0E0B1E0ECE9FFE702C060
:1078800005900D92A230B107D9F712E0A2E0B1E065
:1078900001C01D92AD30B107E1F70E942D3D0C945F
:1078A000CC3F0C94003C982F959595959595959582
:1078B000905D8F708A307CF0282F295A8091C0000B
:1078C00085FFFCCF9093C6008091C00085FFFCCF60
:1078D0002093C6000895282F205DF0CF982F809127
:1078E000C00085FFFCCF9093C6000895EF92FF92F1
:1078F0000F931F93EE24FF2487018091C00087FD22
:1079000017C00894E11CF11C011D111D81E4E8164B
:1079100082E4F8068FE0080780E0180770F3E09132
:107920000401F091050109958091C00087FFE9CF1E
:107930008091C6001F910F91FF90EF9008950E94D3
:10794000763C982F8091C00085FFFCCF9093C600B5
:1079500091362CF490330CF09053892F089597555D
:10796000892F08951F930E949F3C182F0E949F3CCF
:107970001295107F810F1F9108951F93182F882350
:1079800021F00E94763C1150E1F71F9108951F935A
:10799000182F0E94763C803249F0809103018F5F5E
:1079A000809303018530C1F01F9108958091C0003C
:1079B00085FFFCCF84E18093C6008091C00085FFE5
:1079C000FCCF1093C6008091C00085FFFCCF80E102
:1079D0008093C6001F910895E0910401F091050184
:1079E00009951F9108950E94763C803241F0809164
:1079F00003018F5F80930301853081F008958091AA
:107A0000C00085FFFCCF84E18093C6008091C00058
:107A100085FFFCCF80E18093C6000895E0910401CA
:107A2000F09105010995089540E951E08823A1F0FE
:107A30002D9A28EE33E0FA013197F1F721503040CA
:107A4000D1F72D9828EE33E0FA013197F1F7215064
:107A50003040D1F7815061F708953F924F925F9285
:107A60006F927F928F929F92AF92BF92CF92DF924E
:107A7000EF92FF920F931F93CF93DF93000080E16B
:107A80008093C4001092C50088E18093C10086E015
:107A90008093C2005098589A259A81E00E94143D24
:107AA00024E1F22E9EE1E92E85E9D82E0FE0C02ECA
:107AB00010E1B12EAA24A394B1E49B2EA6E58A2E50
:107AC000F2E57F2EE0E26E2E79E4572E63E5462E36
:107AD00050E5352E0E94763C8033B1F18133B9F107
:107AE000803409F46FC0813409F476C0823409F41B
:107AF00085C0853409F488C0803531F1823521F1A3
:107B0000813511F1853509F485C0863509F48DC0BC
:107B1000843609F496C0843709F403C1853709F423
:107B200072C1863709F466C0809103018F5F80932C
:107B30000301853079F6E0910401F0910501099582
:107B40000E94763C803351F60E94F33CC3CF0E94E2
:107B5000763C803249F78091C00085FFFCCFF092DF
:107B6000C6008091C00085FFFCCF9092C600809136
:107B7000C00085FFFCCF8092C6008091C00085FFC9
:107B8000FCCF7092C6008091C00085FFFCCF609250
:107B9000C6008091C00085FFFCCF5092C600809146
:107BA000C00085FFFCCF4092C6008091C00085FFD9
:107BB000FCCF3092C6008091C00085FFFCCFB09210
:107BC000C60088CF0E94763C863808F4BDCF0E945C
:107BD000763C0E94F33C7ECF0E94763C803809F4CC
:107BE0009CC0813809F40BC1823809F43CC1883942
:107BF00009F48FC080E00E94C73C6CCF84E10E94F2
:107C0000BD3C0E94F33C66CF85E00E94BD3C0E94D3
:107C1000F33C60CF0E94763C809306010E94763C44
:107C2000809307010E94F33C55CF0E94763C80333D
:107C300009F41DC183E00E94BD3C80E00E94C73C66
:107C400049CF0E94763C809309020E94763C809343
:107C5000080280910C028E7F80930C020E94763C79
:107C6000853409F415C18091080290910902892B8D
:107C700089F000E010E00E94763CF801E85FFE4FDA
:107C800080830F5F1F4F80910802909109020817AF
:107C9000190788F30E94763C803209F045CF809125
:107CA0000C0280FF01C16091060170910701660F0F
:107CB000771F7093070160930601A0910802B091AD
:107CC00009021097C9F0E8E0F1E09B01AD014E0F09
:107CD0005F1FF999FECF32BD21BD819180BDFA9A17
:107CE000F99A2F5F3F4FE417F50799F76A0F7B1F4B
:107CF00070930701609306018091C00085FFFCCF5F
:107D0000F092C6008091C00085FFFCCFB092C60003
:107D1000E1CE83E00E94C73CDDCE82E00E94C73CFA
:107D2000D9CE0E94763C809309020E94763C8093D3
:107D300008028091060190910701880F991F909386
:107D40000701809306010E94763C853409F4A6C0A1
:107D500080910C028E7F80930C020E94763C8032D0
:107D600009F0B8CE8091C00085FFFCCFF092C6002C
:107D7000609108027091090261157105B9F140E046
:107D800050E080910C02A82FA170B82FB27011C0E2
:107D9000BB2309F45CC0E0910601F0910701319624
:107DA000F0930701E09306014F5F5F4F46175707B7
:107DB000E8F4AA2369F3F999FECF209106013091E6
:107DC000070132BD21BDF89A90B58091C00085FFB2
:107DD000FCCF9093C6002F5F3F4F30930701209355
:107DE00006014F5F5F4F4617570718F38091C00099
:107DF00085FDE5CE8091C00085FFF8CFE0CE81E023
:107E00000E94C73C67CE0E94763C803209F08CCE3F
:107E10008091C00085FFFCCFF092C6008091C00029
:107E200085FFFCCFE092C6008091C00085FFFCCFAB
:107E3000D092C6008091C00085FFFCCFC092C600E2
:107E40008091C00085FFFCCFB092C60043CEE09188
:107E50000601F091070194918091C00085FFFCCF4D
:107E60009093C6009CCF80E10E94C73C33CE0E9415
:107E7000763C0E94763C182F0E94763C112309F430
:107E800083C0113009F484C08FE00E94C73C22CE29
:107E900080910C02816080930C02E5CE80910C02EF
:107EA000816080930C0259CF809107018823880F4D
:107EB000880B8A2180930B02809106019091070123
:107EC000880F991F90930701809306018091080203
:107ED00080FF09C080910802909109020196909359
:107EE000090280930802F894F999FECF1127E091D6
:107EF0000601F0910701C8E0D1E08091080290915D
:107F00000902103091F40091570001700130D9F34B
:107F100003E000935700E89500915700017001308D
:107F2000D9F301E100935700E89509901990009169
:107F3000570001700130D9F301E000935700E89534
:107F40001395103498F011270091570001700130FB
:107F5000D9F305E000935700E895009157000170B0
:107F60000130D9F301E100935700E895329602976A
:107F700009F0C7CF103011F00296E5CF112480919F
:107F8000C00085FFB9CEBCCE8EE10E94C73CA2CD19
:0C7F900085E90E94C73C9ECDF894FFCF0D
:027F9C00800063
:040000030000780081
:00000001FF