:10000000EFC000001DC100001BC1000019C10000AD
:1000100017C1000015C1000013C1000011C100008C
:100020000FC100000DC100000BC1000009C100009C
:1000300007C1000005C1000003C1000001C10000AC
:10004000FFC00000FDC00000FBC00000F9C00000C0
:10005000F7C00000F5C00000F3C00000D0C30000EE
:10006000EFC0000096C300006BC30000E9C00000B1
:10007000E7C00000E5C00000E3C00000E1C00000F0
:10008000DFC00000DDC00000DBC00000D9C0000000
:10009000D7C00000D5C00000D3C00000D1C0000010
:1000A000CFC00000CDC00000CBC00000C9C0000020
:1000B000C7C00000C5C00000C3C00000C1C0000030
:1000C000BFC00000BDC00000BBC00000B9C0000040
:1000D000B7C00000B5C00000B3C00000B1C0000050
:1000E000AFC0000000407A10F35A00A0724E180909
:1000F0000010A5D4E80000E87648170000E40B548F
:10010000020000CA9A3B000000E1F505000080965D
:100110009800000040420F000000A086010000008F
:10012000102700000000E803000000006400000049
:1001300000000A00000000000100000000002C7612
:10014000D888DC674F0823DFC1DFAE59E1B1B7962D
:10015000E5E3E453C63AE651997696E8E6C284268A
:10016000EB898C9B62ED407C6FFCEFBC9C9F40F266
:10017000BAA56FA5F490055A2AF75C936B6CF967E2
:100180006DC11BFCE0E40D47FEF520E6B500D0EDA7
:10019000902E0300943577050080841E080000200F
:1001A0004E0A000000C80C333333330F986E1283AD
:1001B0001141EF8D2114893BE65516CFFEE6DB1881
:1001C000D1844B381BF77C1D901DA4BBE424203246
:1001D00084725E228100C9F124ECA1E53D27490427
:1001E00011241FBECFEFD1E2DEBFCDBF00E00CBFB8
:1001F00023E0A8E8B2E001C01D92A236B207E1F701
:1002000012E0A0E0B2E0E6E0FBE100E00BBF02C0DC
:1002100007900D92A838B107D9F710E0C0EFD0E0F1
:1002200000E006C021970109802FFE010E94680BA3
:10023000CF3ED10780E00807A9F7D1D30C94810DF8
:10024000DFCEAF92BF92CF92DF92EF92FF920F93E9
:100250001F93CF93DF936C017B018B01040F151F5C
:10026000EB015E01AE18BF08C017D10759F06991C4
:10027000D601ED91FC910190F081E02DC601199518
:10028000892B79F7C501DF91CF911F910F91FF90D5
:10029000EF90DF90CF90BF90AF900895FC01538D09
:1002A000448D252F30E0842F90E0821B930B541750
:1002B00010F0CF96089501970895FC01918D828DDD
:1002C000981761F0A28DAE0FBF2FB11D5D968C9176
:1002D000928D9F5F9F73928F90E008958FEF9FEFB5
:1002E0000895FC01918D828D981731F0828DE80F71
:1002F000F11D858D90E008958FEF9FEF0895FC012B
:10030000918D228D892F90E0805C9F4F821B9109F7
:100310008F739927089581E992E0F1DF21E0892B1D
:1003200009F420E0822F0895FC01A48DA80FB92FB5
:10033000B11DA35ABF4F2C91848D90E001968F730D
:100340009927848FA689B7892C93A089B1898C912C
:10035000837080648C93938D848D981306C002887B
:10036000F389E02D80818F7D80830895EF92FF9245
:100370000F931F93CF93DF93EC0181E0888F9B8DC8
:100380008C8D98131AC0E889F989808185FF15C082
:100390009FB7F894EE89FF896083E889F9898081A5
:1003A0008370806480839FBF81E090E0DF91CF9174
:1003B0001F910F91FF90EF900895F62E0B8D10E096
:1003C0000F5F1F4F0F731127E02E8C8D8E110BC006
:1003D0000FB607FCFACFE889F989808185FFF5CF50
:1003E000CE01A2DFF2CFEB8DEC0FFD2FF11DE35A12
:1003F000FF4FF0829FB7F8940B8FEA89FB898081C9
:100400008062D0CFCF93DF93EC01888D8823B1F049
:10041000AA89BB89E889F9898C9185FD03C080810F
:1004200086FD0CC00FB607FCF7CF8C9185FFF2CF8D
:10043000808185FFEDCFCE0177DFEACFDF91CF91CD
:10044000089580E090E0892B21F065DF81110E9402
:10045000000080E090E0892B49F080E090E0892B5B
:1004600029F00E94000081110E94000080E090E0CD
:10047000892B49F080E090E0892B29F00E94000050
:1004800081110E94000080E090E0892B49F080E01B
:1004900090E0892B29F00E94000081110C9400004B
:1004A00008953FB7F89480918D0290918E02A091AB
:1004B0008F02B091900226B5A89B05C02F3F19F07E
:1004C0000196A11DB11D3FBFBA2FA92F982F8827D4
:1004D000BC01CD01620F711D811D911D42E0660FAF
:1004E000771F881F991F4A95D1F7089542E050E081
:1004F0006CE172E081E992E0A4CECF93DF93FC013E
:1005000001900020E9F73197AF01481B590BBC015E
:1005100081E992E096DEEC01E9DF8C0F9D1FDF910F
:10052000CF9108950F931F93CF93DF93EC018881B0
:100530009981009759F02A813B812617370730F0BF
:1005400081E0DF91CF911F910F9108958B016F5F33
:100550007F4F0E94950C009759F0998388831B83E5
:100560000A832C813D81232B59F7FC011082E8CFAF
:1005700080E0E7CFCF93DF93EC01888199810097EA
:1005800011F00E940C0C198218821D821C821B82A1
:100590001A82DF91CF9108950F931F93CF93DF932A
:1005A000EC010C811D810F5F1F4FB801BBDF882359
:1005B00091F0288139818C819D816FE172E0820FF9
:1005C000931F0E947A0D1D830C83CE01DF91CF9182
:1005D0001F910F910895CE01CDDFF7CFEF92FF92DB
:1005E0000F931F93CF93DF93EC017B011982188245
:1005F0001B821A821D821C82FB0101900020E9F7F8
:1006000031978F01061B170BB8018CDF811108C0D1
:10061000CE01DF91CF911F910F91FF90EF90AACF64
:100620001D830C83B70188819981DF91CF911F9140
:100630000F91FF90EF900C947A0DCF92DF92EF9292
:10064000FF920F931F93CF93DF93CDB7DEB7A197A0
:100650000FB6F894DEBF0FBECDBF7C01CB01BA014F
:10066000F7011182108213821282158214828E0188
:100670000F5F1F4F22E044E011D46C01009769F036
:10068000FC0101900020E9F731978F01081B190B3D
:10069000B801C70147DF811111C0C7016BDFA19607
:1006A0000FB6F894DEBF0FBECDBFDF91CF911F9183
:1006B0000F91FF90EF90DF90CF900895F701158391
:1006C0000483B601808191810E947A0DE8CFEF9278
:1006D000FF920F931F93CF93DF93EC01FB01E08018
:1006E000F180E114F10409F104811581011511056E
:1006F000A1F08C819D81080F191FB801CE0112DF76
:10070000882399F0288139818C819D81B701820FDE
:10071000931F0E947A0D1D830C83CE01DF91CF9130
:100720001F910F91FF90EF900895CE0123DFF5CF39
:10073000FC0180819181009711F00C940C0C0895BC
:100740001F920F920FB60F9211240BB60F922F9398
:100750003F934F935F936F937F938F939F93AF9349
:10076000BF93EF93FF9381E992E0DEDDFF91EF917C
:10077000BF91AF919F918F917F916F915F914F91B9
:100780003F912F910F900BBE0F900FBE0F901F90B7
:1007900018951F920F920FB60F9211240BB60F925D
:1007A0002F938F939F93EF93FF93E091A102F0918A
:1007B000A2028081E091A702F091A80282FD1DC0F3
:1007C00090818091AA028F5F8F732091AB02821774
:1007D00041F0E091AA02F0E0EF56FD4F958F809333
:1007E000AA02FF91EF919F918F912F910F900BBED5
:1007F0000F900FBE0F901F9018958081F2CF1F921F
:100800000F920FB60F9211242F933F938F939F93C4
:10081000AF93BF938091890290918A02A0918B023D
:10082000B0918C023091880223E0230F2D3758F5C8
:100830000196A11DB11D2093880280938902909397
:100840008A02A0938B02B0938C0280918D029091CA
:100850008E02A0918F02B09190020196A11DB11D50
:1008600080938D0290938E02A0938F02B09390029A
:10087000BF91AF919F918F913F912F910F900FBE9C
:100880000F901F90189526E8230F0296A11DB11D09
:10089000D2CF109294021092930288EE93E0A0E0DF
:1008A000B0E08093950290939602A0939702B09344
:1008B00098028EE092E0909392028093910285ECF0
:1008C00090E090939E0280939D0284EC90E0909340
:1008D000A00280939F0280EC90E09093A20280930C
:1008E000A10281EC90E09093A4028093A30282EC99
:1008F00090E09093A6028093A50286EC90E09093FE
:10090000A8028093A7021092AA021092AB02109242
:10091000AC021092AD0280913203811103C081E0DC
:10092000809332038EE293E090933B0380933A03EB
:1009300080E092E090933D0380933C0380E090E060
:10094000ACE8B2E480933E0390933F03A09340034E
:10095000B09341038DEC9CECACECBDE3809342037F
:1009600090934303A0934403B093450387E197EB2F
:10097000A1EDB8E38093460390934703A093480307
:10098000B093490380E090E0A0E8BFE380934A037E
:1009900090934B03A0934C03B0934D0310924E03DE
:1009A00010924F0310925003109251031092520371
:1009B0001092530310925403109255031092560351
:1009C00010925703109258031092590310925A0331
:1009D00010925B0310925C0310925D030895CF9315
:1009E000DF93CDB7DEB7AE970FB6F894DEBF0FBE7C
:1009F000CDBF789484B5826084BD84B5816084BDA8
:100A000085B5826085BD85B5816085BD80916E00AC
:100A1000816080936E0010928100809181008260DD
:100A2000809381008091810081608093810080911A
:100A300080008160809380008091B1008460809309
:100A4000B1008091B00081608093B00080919100EE
:100A500082608093910080919100816080939100E9
:100A6000809190008160809390008091A1008260CD
:100A70008093A1008091A10081608093A10080916A
:100A8000A00081608093A00080912101826080930A
:100A900021018091210181608093210180912001B9
:100AA00081608093200180917A00846080937A0035
:100AB00080917A00826080937A0080917A008160D0
:100AC00080937A0080917A00806880937A001092F7
:100AD000C100E091A102F091A20282E08083E09146
:100AE000A102F091A2021082E0919D02F0919E027B
:100AF0001082E0919F02F091A00280E18083109229
:100B0000A902E091A502F091A60286E08083E0911F
:100B1000A302F091A402808180618083E091A3020E
:100B2000F091A402808188608083E091A302F0911B
:100B3000A402808180688083E091A302F091A402E6
:100B400080818F7D808311E081E992E0D8DB1816E7
:100B5000190664F481E992E0B0DB8335910531F444
:100B600081E292E0CADC8CE292E0C7DC8091320341
:100B7000811102C010933203C0902E03D0902F0336
:100B8000E0903003F090310320E030E048EC51E495
:100B9000C701B601CCD420E030E048E453E42CD5C2
:100BA0009B01AC01C701B601C2D46B017C012AE9EB
:100BB00039E949E15FE3609100027091010280919F
:100BC000020290910302FFD39B01AC01C701B60161
:100BD000AFD460932E0370932F03809330039093D0
:100BE0003103E0913A03F0913B03309709F4A4C03C
:100BF000208131814281538160913E0370913F0396
:100C0000809140039091410392D46B017C0120912B
:100C10004203309143034091440350914503D3D3A1
:100C20004B015C0180924E0390924F03A0925003BF
:100C3000B0925103209146033091470340914803FD
:100C400050914903C701B601BED3209152033091A0
:100C5000530340915403509155036AD46BA77CA76A
:100C60008DA79EA760935203709353038093540300
:100C70009093550340905A0350905B0360905C033F
:100C800070905D0320E030E0A901C301B20173D38D
:100C90008823C1F0A3019201C701B60148D49B018A
:100CA000AC0160914A0370914B0380914C03909189
:100CB0004D0389D360935603709357038093580371
:100CC00090935903C0925A03D0925B03E0925C0365
:100CD000F0925D03E0903C03F0903D032BA53CA512
:100CE0004DA55EA5C501B40123D4209156033091D2
:100CF000570340915803509159031AD44B015C019A
:100D000020E030E0A901E0D418160CF0C3C020E0C8
:100D100030E040E85FE3C501B4012DD387FD06C094
:100D2000812C912C90E8A92E9FE3B92ED7018D92AA
:100D30009D92AD92BC92139780913203811102C0B3
:100D40001093320340912E0350912F036091300392
:100D500070913103CE01859670DC4091560350911D
:100D600057036091580370915903CE01019665DCD9
:100D70004091520350915303609154037091550375
:100D8000CE0107965ADC40914E0350914F0360917B
:100D9000500370915103CE010D964FDC409100023B
:100DA000509101026091020270910302CE014396BC
:100DB00044DC40913E0350913F03609140037091A9
:100DC0004103CE01499639DC66E872E0CE014F96C8
:100DD00005DCBE016B5D7F4FCE014F9678DCDCDB1E
:100DE000BE01675E7F4F73DCD7DBBE016D5E7F4F58
:100DF0006EDCD2DBBE01635F7F4F69DCCDDBBE0101
:100E0000695F7F4F64DCC8DBBE016F5F7F4F5FDCD3
:100E1000FC01448155816081718181E992E011DAA0
:100E200065DBCE014F9684DCCE01499681DCCE0194
:100E300043967EDCCE010D967BDCCE01079678DCF6
:100E4000CE01019675DC2DDB4B015C0184E6C82EDA
:100E5000D12CE12CF12C25DB681979098A099B0931
:100E6000683E734081059105B0F3F1E0CF1AD108D7
:100E7000E108F10828EE820E23E0921EA11CB11CAD
:100E8000C114D104E104F10431F7CE01859650DCA0
:100E9000D8DA5ACE812C912C540148CFEF920F937F
:100EA0001F93CF93DF93E80134E047FD34E1042E34
:100EB000000C550B57FF03C0519541955109E32E86
:100EC000022F242FAE0107D0CE01DF91CF911F91C9
:100ED0000F91EF9008958F929F92AF92BF92CF9211
:100EE000DF92EF92FF920F931F93CF93DF9300D087
:100EF00000D000D0CDB7DEB76A01F22EB02E102F91
:100F0000FBE3AF2EA01608F41BE31F5F012F27E0C1
:100F1000AE014F5F5F4F57D1BC018981982F997007
:100F2000913009F44EC09BE2E1FC04C09E2D91700B
:100F3000E0FC49C05E2D5071E82FE87083FF55C07A
:100F400084E0911101C083E0EF2DE81B8F1508F0BC
:100F5000E0E0D6018E2F20E25523C9F1992329F034
:100F6000D6019C93C60101966C0196012D5F3F4FFF
:100F7000E2FE33C08EE4D6018C9391E411969C93EB
:100F8000119712968C93D9018E2F90E281112AC06D
:100F9000E20FF32FF11D10828EEF9FEF29960FB60F
:100FA000F894DEBF0FBECDBFDF91CF911F910F919F
:100FB000FF90EF90DF90CF90BF90AF909F908F9079
:100FC00008959DE2B7CF90E2B5CF2D938150811166
:100FD000FCCFCE0ED11CE0E0C1CF8EE6D6018C93C3
:100FE00091E6CCCF9D938150D1CF482F447082FFA2
:100FF0003DC084E0911101C083E08F1510F4EF2D06
:10100000E81BD6018E2F20E2552309F1992329F000
:10101000D6019C93C60101966C0196012D5F3F4F4E
:10102000E2FE1BC089E4D6018C938EE411968C936A
:10103000119786E412968C93D9018E2F90E2882323
:1010400009F4A6CF9D938150FACF2D938150811141
:10105000FCCFCE0ED11CE0E0D9CF89E6D6018C932F
:101060008EE611968C93119786E6E4CF9B0177FF6D
:1010700002C030E020E0A1E0B0E0911102C0B0E099
:10108000A0E0F9013196AE0FBF1F8B2C912CBB2035
:1010900009F461C05401EFEFAE1ABE0AAA0DBB1DE0
:1010A000FA161B0619F014F04F2D4A1B511188C077
:1010B000E3FC59C07601A42FB0E2A1114FC0C40EC9
:1010C000D11C992309F45BC040E0D6011196F601CA
:1010D00090836D01552309F448C0012F060F9A81B2
:1010E000582F507184FF03C0913309F4015010163A
:1010F0000CF047C0093008F008E0EEE2FE2E5B017C
:10110000A01AB10885019194819491082F3F32076C
:1011100029F4D601FC92F60131966F01621773072C
:1011200094F1021713077CF5DB01A21BB30BAA2471
:10113000A394B12CAC0EBD1EAA0DBB1D11968C91B3
:1011400021503109D601119628153905F4F0F60120
:1011500080836D01DBCFB12CA12CA0CFF701B1931F
:101160007F01A150AACF9111B0CFD601942F50E3A7
:1011700002C05D9391509111FCCFC40ED11C40E090
:10118000ACCF01E0BACF80E3DBCF6217730731F455
:10119000963388F4953311F4552369F0F601808372
:1011A000FD01842F90E2811108C0A40FB11D1C9293
:1011B00090E080E0F3CE81E3F1CF91938150F3CFC3
:1011C000911183CF8ACF283008F027E03327DA0146
:1011D000990F311D87FD916000966105710539F405
:1011E00032602E5F3D9330E32A95E1F708959F3FEB
:1011F00030F080387105610509F03C5F3C5F3D933C
:10120000913008F08068911DDF93CF931F930F9367
:10121000FF92EF92192F987F9695E92F96959695C4
:10122000E90FFF27E25CFE4F99273327EE24FF24C6
:10123000A701E70105900894079428F4360FE71EEC
:10124000F81E491F511D660F771F881F991F0694AE
:10125000A1F70590079428F4E70EF81E491F561FC2
:10126000C11D770F881F991F661F0694A1F705906F
:10127000079428F4F80E491F561FC71FD11D880F69
:10128000991F661F771F0694A1F70590079420F415
:10129000490F561FC71FD81F990F661F771F881F3A
:1012A0000694A9F784911095177041F0D695C795CB
:1012B00057954795F794E7941A95C1F7E4EEF0E057
:1012C00068941590159135916591959105907FE2FF
:1012D0007395E118F10A430B560BC90BD009C0F7FF
:1012E000E10CF11E431F561FC91FD01D7EF4703341
:1012F00011F48A95E6CFE894015030F0080F0AF413
:101300000027021708F4202F2395022F7A3328F0A4
:1013100079E37D932A95E9F710C07D932A9589F6A4
:10132000069497956795379517951794E118F10AE4
:10133000430B560BC90BD00998F023957E917395FA
:101340007A3308F070E37C932013B8F77E917061D4
:101350007D9330F0839571E37D9370E32A95E1F7F7
:101360001124EF90FF900F911F91CF91DF9199275A
:1013700087FD9095089503D008F481E00895990FB2
:101380000008550FAA0BE0E8FEEF16161706E8074F
:10139000F907C0F012161306E407F50798F0621B70
:1013A000730B840B950B39F40A2661F0232B242B45
:1013B000252B21F408950A2609F4A140A6958FEF64
:1013C000811D811D08950BD078C069D028F06ED0A2
:1013D00018F0952309F05AC05FC01124A2C07ED036
:1013E000A0F3959FD1F3950F50E0551F629FF00138
:1013F000729FBB27F00DB11D639FAA27F00DB11D91
:10140000AA1F649F6627B00DA11D661F829F222719
:10141000B00DA11D621F739FB00DA11D621F839FA0
:10142000A00D611D221F749F3327A00D611D231F76
:10143000849F600D211D822F762F6A2F11249F57C4
:1014400050408AF0E1F088234AF0EE0FFF1FBB1FE7
:10145000661F771F881F91505040A9F79E3F510586
:1014600070F014C05EC05F3FECF3983EDCF38695ED
:1014700077956795B795F795E7959F5FC1F7FE2B31
:10148000880F911D9695879597F9089597F99F670D
:1014900080E870E060E008959FEF80EC08950024FC
:1014A0000A941616170618060906089500240A94C9
:1014B00012161306140605060895092E0394000C4F
:1014C00011F4882352F0BB0F40F4BF2B11F460FFDE
:1014D00004C06F5F7F4F8F4F9F4F089557FD905807
:1014E000440F551F59F05F3F71F04795880F97FBE8
:1014F000991F61F09F3F79F08795089512161306A2
:101500001406551FF2CF4695F1DF08C016161706D0
:101510001806991FF1CF8695710561050894089505
:10152000E894BB2766277727CB0197F90895505891
:10153000BB27AA270ED0C1CFB2DF30F0B7DF20F033
:1015400031F49F3F11F41EF4A7CF0EF4E095E7FBB2
:101550009DCFE92FC3DF80F3BA17620773078407B3
:10156000950718F071F49EF5DBCF0EF4E0950B2E85
:10157000BA2FA02D0B01B90190010C01CA01A001E5
:101580001124FF27591B99F0593F50F4503E68F140
:101590001A16F040A22F232F342F4427585FF3CF81
:1015A000469537952795A795F0405395C9F77EF452
:1015B0001F16BA0B620B730B840BBAF09150A1F09B
:1015C000FF0FBB1F661F771F881FC2F70EC0BA0F21
:1015D000621F731F841F48F4879577956795B795A9
:1015E000F7959E3F08F0B3CF9395880F08F09927A1
:1015F000EE0F9795879508950CD05FCF57DF40F099
:101600004EDF30F021F45F3F19F040CF511189CF08
:1016100043CF64DF98F39923C9F35523B1F3951BA6
:10162000550BBB27AA2762177307840738F09F5F03
:101630005F4F220F331F441FAA1FA9F333D00E2E72
:101640003AF0E0E830D091505040E695001CCAF7DF
:1016500029D0FE2F27D0660F771F881FBB1F2617A4
:1016600037074807AB07B0E809F0BB0B802DBF0177
:10167000FF2793585F4F2AF09E3F510568F006CF31
:1016800050CF5F3FECF3983EDCF3869577956795F6
:10169000B795F7959F5FC9F7880F911D9695879528
:1016A00097F90895E1E0660F771F881FBB1F621747
:1016B00073078407BA0720F0621B730B840BBA0B05
:1016C000EE1F88F7E09508955ADE08F48FEF08952D
:1016D000EE0FFF1F881F8BBF0790F691E02D199426
:1016E0000F931F93CF93DF938230910510F482E024
:1016F00090E0E0916003F091610330E020E0B0E021
:10170000A0E0309799F42115310509F44AC0281B4F
:10171000390B24303105D8F58A819B81611571051B
:1017200089F1FB0193838283FE0111C040815181C5
:101730000281138148175907E0F04817590799F4B7
:10174000109761F012960C93129713961C93329691
:10175000CF01DF91CF911F910F9108950093600306
:1017600010936103F4CF2115310551F0421753074F
:1017700038F0A901DB019A01BD01DF01F801C1CFF9
:10178000EF01F9CF9093610380936003CDCFFE0109
:10179000E20FF31F819391932250310939832883FB
:1017A000D7CF20915E0330915F03232B41F420912A
:1017B00006023091070230935F0320935E0320916D
:1017C0000402309105022115310541F42DB73EB7D1
:1017D0004091080250910902241B350BE0915E03F1
:1017E000F0915F03E217F307A0F42E1B3F0B2817BD
:1017F000390778F0AC014E5F5F4F2417350748F08A
:101800004E0F5F1F50935F0340935E03819391934C
:101810009FCFF0E0E0E09CCFCF93DF930097E9F01B
:10182000FC01329713821282A0916003B091610390
:10183000ED0130E020E01097A1F420813181820F8A
:10184000931F20915E0330915F032817390709F039
:1018500061C0F0935F03E0935E03DF91CF91089541
:10186000EA01CE17DF07E8F54A815B819E01411549
:101870005105B1F7E901FB83EA8349915991C40FFE
:10188000D51FEC17FD0761F4808191810296840FCA
:10189000951FE90199838883828193819B838A8341
:1018A000F0E0E0E012968D919C9113970097B9F5C6
:1018B0002D913C911197CD010296820F931F20919B
:1018C0005E0330915F032817390739F6309751F5D9
:1018D0001092610310926003B0935F03A0935E03C4
:1018E000BCCFD383C28340815181840F951FC81719
:1018F000D90761F44E5F5F4F88819981480F591F66
:10190000518340838A819B81938382832115310592
:1019100009F0B0CFF0936103E09360039ECFFD0127
:10192000DC01C0CF13821282D7CF4F925F926F92A9
:101930007F928F929F92AF92BF92CF92DF92EF925F
:10194000FF920F931F93CF93DF938C01009791F435
:10195000CB01DF91CF911F910F91FF90EF90DF901E
:10196000CF90BF90AF909F908F907F906F905F903F
:101970004F90B6CEFC01E60FF71F9C0122503109B3
:10198000E217F30708F4AAC0D901CD91DC911197B1
:10199000C617D70718F1C530D10570F0CE010497EE
:1019A0008617970748F0C61BD70B2297C193D19390
:1019B0006D937C93CF0130DFC801DF91CF911F91F0
:1019C0000F91FF90EF90DF90CF90BF90AF909F90DE
:1019D0008F907F906F905F904F9008955B01AC1A4D
:1019E000BD0A4C018C0E9D1EA0916003B091610355
:1019F000512C412CF12CE12C109731F580915E0394
:101A000090915F038815990509F05CC0461657064A
:101A100008F058C08091040290910502009741F4AB
:101A20008DB79EB74091080250910902841B950B17
:101A3000E817F90708F052C0F0935F03E0935E03E4
:101A4000F90171836083B8CF8D919C9111971296A3
:101A50006C90129713967C901397A815B90559F5B9
:101A60006C0142E0C40ED11CCA14DB0420F1AC01AD
:101A70004A195B09DA011296159780F06282738227
:101A800051834083D9016D937C93E114F10471F08B
:101A9000D7011396FC93EE9312978ECF22968C0F5C
:101AA0009D1FF90191838083F301EFCFF0936103D0
:101AB000E093600381CF4816590608F42C017D019C
:101AC000D3019ACFCB010CDE7C01009739F0AE0137
:101AD000B80107D0C801A0DE87016ECF10E000E09A
:101AE0006BCFFB01DC0102C001900D9241505040D0
:101AF000D8F70895FB01DC0101900D920020E1F779
:061B00000895F894FFCFE8
:101B06000000803F00006203800000000000B60174
:101B160021014E0102027F015D0171010D0A003BA8
:101B260000244E243B426F696C6572002443243BBB
:101B360074656D70657261747572653B74656D7000
:101B4600657261747572655F726571756972653B00
:101B56006865617465723B7069645F70726F706FFF
:101B66007274696F6E616C3B7069645F696E7465EF
:101B76006772616C3B7069645F646966666572650D
:081B86006E7469616C0024001B
:00000001FF
