:100000000C94DA000C9402010C9402010C9402018D
:100010000C9402010C9402010C9402010C94020154
:100020000C9402010C9402010C9402010C944F04F4
:100030000C9402010C9402010C9402010C94020134
:100040000C9405040C9402010C94D3030C94AD039E
:100050000C9402010C9402010C9402010C94020114
:100060000C9402010C94020100407A10F35A00A093
:10007000724E18090010A5D4E80000E87648170071
:1000800000E40B54020000CA9A3B000000E1F505B1
:10009000000080969800000040420F000000A086FB
:1000A00001000000102700000000E803000000002D
:1000B0006400000000000A000000000001000000D1
:1000C00000002C76D888DC674F0823DFC1DFAE59EB
:1000D000E1B1B796E5E3E453C63AE651997696E87E
:1000E000E6C28426EB898C9B62ED407C6FFCEFBC02
:1000F0009C9F40F2BAA56FA5F490055A2AF75C932D
:100100006B6CF9676DC11BFCE0E40D47FEF520E662
:10011000B500D0ED902E0300943577050080841E45
:10012000080000204E0A000000C80C333333330FA0
:10013000986E12831141EF8D2114893BE65516CF3D
:10014000FEE6DB18D1844B381BF77C1D901DA4BB49
:10015000E424203284725E228100C9F124ECA1E5FE
:100160003D27000000080002010000030407000012
:1001700000000000000000000000250028002B0007
:1001800000000000240027002A00040404040404E2
:100190000404020202020202030303030303010236
:1001A0000408102040800102040810200102040805
:1001B0001020FC0411241FBECFEFD8E0DEBFCDBF5E
:1001C00022E0A4E8B1E001C01D92A337B207E1F735
:1001D00011E0A0E0B1E0EAE7FDE102C005900D9278
:1001E000A438B107D9F710E0CAEDD0E004C02197D8
:1001F000FE010E94C30CC93DD107C9F70E94A205A8
:100200000C94BB0E0C940000EBEAF1E02491E7E9BA
:10021000F1E08491882399F090E0880F991FFC0108
:10022000E058FE4FA591B491FC01EA58FE4F85912C
:1002300094918FB7F894EC91E22BEC938FBFF894E4
:1002400010928000109281008091810088608093DC
:1002500081008091810082608093810080E29EE431
:10026000909389008093880080916F0082608093D2
:100270006F0078940895AF92BF92CF92DF92EF9281
:10028000FF920F931F93CF93DF936C017B018B0140
:10029000040F151FEB015E01AE18BF08C017D10790
:1002A00059F06991D601ED91FC910190F081E02D1A
:1002B000C6010995892B79F7C501DF91CF911F916F
:1002C0000F91FF90EF90DF90CF90BF90AF90089587
:1002D000FC01538D448D252F30E0842F90E0821B4C
:1002E000930B541710F0CF96089501970895FC01D1
:1002F000918D828D981761F0A28DAE0FBF2FB11D29
:100300005D968C91928D9F5F9F73928F90E0089580
:100310008FEF9FEF0895FC01918D828D981731F03A
:10032000828DE80FF11D858D90E008958FEF9FEF8E
:100330000895FC01918D228D892F90E0805C9F4F64
:10034000821B91098F739927089582EA91E00E9498
:10035000990121E0892B09F420E0822F089580E0A3
:1003600090E0892B29F00E94A50181110C940000D6
:100370000895FC01A48DA80FB92FB11DA35ABF4F3A
:100380002C91848D90E001968F739927848FA68994
:10039000B7892C93A089B1898C91837080648C93E8
:1003A000938D848D981306C00288F389E02D808197
:1003B0008F7D80830895EF92FF920F931F93CF93C9
:1003C000DF93EC0181E0888F9B8D8C8D98131AC090
:1003D000E889F989808185FF15C09FB7F894EE8977
:1003E000FF896083E889F9898081837080648083D4
:1003F0009FBF81E090E0DF91CF911F910F91FF901F
:10040000EF900895F62E0B8D10E00F5F1F4F0F73C6
:100410001127E02E8C8D8E110CC00FB607FCFACF81
:10042000E889F989808185FFF5CFCE010E94B90165
:10043000F1CFEB8DEC0FFD2FF11DE35AFF4FF08252
:100440009FB7F8940B8FEA89FB8980818062CFCFB8
:10045000CF93DF93EC01888D8823B9F0AA89BB89FB
:10046000E889F9898C9185FD03C0808186FD0DC0E6
:100470000FB607FCF7CF8C9185FFF2CF808185FF07
:10048000EDCFCE010E94B901E9CFDF91CF91089560
:100490003FB7F8948091950190919601A0919701B2
:1004A000B091980126B5A89B05C02F3F19F0019681
:1004B000A11DB11D3FBFBA2FA92F982F8827BC01BE
:1004C000CD01620F711D811D911D42E0660F771FE6
:1004D000881F991F4A95D1F708958091880181114D
:1004E00003C081E08093880184E891E0089542E0B0
:1004F00050E068E171E082EA91E00C943B01CF9317
:10050000DF93FC0101900020E9F73197AF01481B10
:10051000590BBC0182EA91E00E943B01EC010E9470
:1005200077028C0F9D1FDF91CF9108950F931F933A
:10053000CF93DF93EC0188819981009759F02A814C
:100540003B812617370730F081E0DF91CF911F9173
:100550000F9108958B016F5F7F4F0E94EE0D009702
:1005600059F0998388831B830A832C813D81232B37
:1005700059F7FC011082E8CF80E0E7CFCF93DF93FB
:10058000EC0188819981009711F00E94650D198214
:1005900018821D821C821B821A82DF91CF910895DE
:1005A0000F931F93CF93DF93EC010C811D810F5F9D
:1005B0001F4FB8010E949602882391F0288139814B
:1005C0008C819D816BE171E0820F931F0E94B40EBC
:1005D0001D830C83CE01DF91CF911F910F91089560
:1005E000CE010E94BE02F6CFEF92FF920F931F93AF
:1005F000CF93DF93EC017B01198218821B821A8250
:100600001D821C82FB0101900020E9F731978F01C8
:10061000061B170BB8010E949602811109C0CE017A
:10062000DF91CF911F910F91FF90EF900C94BE023C
:100630001D830C83B70188819981DF91CF911F9130
:100640000F91FF90EF900C94B40ECF92DF92EF9247
:10065000FF920F931F93CF93DF93CDB7DEB7A19790
:100660000FB6F894DEBF0FBECDBF7C01CB01BA013F
:10067000F7011182108213821282158214828E0178
:100680000F5F1F4F22E044E00E942F086C0100978B
:1006900071F0FC0101900020E9F731978F01081BF0
:1006A000190BB801C7010E949602811112C0C7013F
:1006B0000E94BE02A1960FB6F894DEBF0FBECDBF5A
:1006C000DF91CF911F910F91FF90EF90DF90CF902E
:1006D0000895F70115830483B601808191810E94FA
:1006E000B40EE8CFEF92FF920F931F93CF93DF9357
:1006F000EC01FB01E080F180E114F10411F10481CF
:10070000158101151105A9F08C819D81080F191F14
:10071000B801CE010E949602882399F02881398180
:100720008C819D81B701820F931F0E94B40E1D839F
:100730000C83CE01DF91CF911F910F91FF90EF902D
:100740000895CE010E94BE02F4CFFC018081918108
:10075000009711F00C94650D08951F920F920FB63B
:100760000F9211242F933F934F935F936F937F9337
:100770008F939F93AF93BF93EF93FF9382EA91E0A0
:100780000E94B901FF91EF91BF91AF919F918F911D
:100790007F916F915F914F913F912F910F900FBE7D
:1007A0000F901F9018951F920F920FB60F92112461
:1007B0002F938F939F93EF93FF93E091B201F0916A
:1007C000B3018081E091B801F091B90182FD1BC0B5
:1007D00090818091BB018F5F8F732091BC01821744
:1007E00041F0E091BB01F0E0EE55FE4F958F809314
:1007F000BB01FF91EF919F918F912F910F900FBEB1
:100800000F901F9018958081F4CF1F920F920FB612
:100810000F9211242F933F938F939F93AF93BF9386
:100820008091910190919201A0919301B0919401D6
:100830003091900123E0230F2D3758F50196A11D2B
:10084000B11D209390018093910190939201A09308
:100850009301B09394018091950190919601A0919C
:100860009701B09198010196A11DB11D809395014A
:1008700090939601A0939701B0939801BF91AF9187
:100880009F918F913F912F910F900FBE0F901F90CE
:10089000189526E8230F0296A11DB11DD2CF1F92F5
:1008A0000F920FB60F921124BF92CF92DF92EF9268
:1008B000FF920F931F932F933F934F935F936F93E9
:1008C0007F938F939F93AF93BF93CF93DF93EF93D8
:1008D000FF9380919901811105C00E94040181E07C
:1008E000809399010E946D02DC01CD90DD90ED9026
:1008F000FC906091A101D1E0D60FD093A101EFE669
:10090000F1E08491EBEAF1E0C491E7E9F1E0E491F0
:10091000EE23A1F1882359F0833009F454C008F084
:1009200047C0813009F455C0823009F456C0F0E068
:10093000EE0FFF1FEA58FE4F05911491BFB6F894D1
:1009400020E030E04FE753E4C701B6010E94EA0A15
:100950006B017C016D2F70E090E080E00E948B0ABB
:100960009B01AC01C701B6010E94BE0CD801EC91FD
:1009700087FF40C0C095CE23CC93BFBEFF91EF91BF
:10098000DF91CF91BF91AF919F918F917F916F91A7
:100990005F914F913F912F911F910F91FF90EF9099
:1009A000DF90CF90BF900F900FBE0F901F901895C3
:1009B0008730B1F08830D1F0843009F0B8CF809121
:1009C00080008F7D03C0809180008F7780938000AE
:1009D000AECF84B58F7784BDAACF84B58F7DFBCF92
:1009E0008091B0008F778093B000A1CF8091B0004C
:1009F0008F7DF9CFCE2BC0CF1092A5011092A4010C
:100A000088EE93E0A0E0B0E08093A6019093A70168
:100A1000A093A801B093A9018AE091E09093A3016B
:100A20008093A20185EC90E09093AF018093AE019A
:100A300084EC90E09093B1018093B00180EC90E061
:100A40009093B3018093B20181EC90E09093B50153
:100A50008093B40182EC90E09093B7018093B6014B
:100A600086EC90E09093B9018093B8011092BB019D
:100A70001092BC011092BD011092BE018091430200
:100A8000811103C081E0809343020E946D022FE335
:100A900032E030934C0220934B0290934E028093AD
:100AA0004D0280E090E0ACE8B2E480934F02909376
:100AB0005002A0935102B09352028DEC9CECACEC2E
:100AC000BDE38093530290935402A0935502B093D8
:100AD000560287E197EBA1EDB8E38093570290931C
:100AE0005802A0935902B0935A0280E090E0A0E827
:100AF000BFE380935B0290935C02A0935D02B0938E
:100B00005E0210925F0210926002109261021092D7
:100B100062021092630210926402109265021092B7
:100B20006602109267021092680210926902109297
:100B30006A0210926B0210926C0210926D02109277
:100B40006E020895CF93DF93CDB7DEB7AE970FB6A1
:100B5000F894DEBF0FBECDBF789484B5826084BDAB
:100B600084B5816084BD85B5826085BD85B58160B1
:100B700085BD80916E00816080936E00109281002F
:100B800080918100826080938100809181008160EA
:100B900080938100809180008160809380008091AB
:100BA000B10084608093B1008091B0008160809337
:100BB000B00080917A00846080937A0080917A00FE
:100BC000826080937A0080917A00816080937A00BD
:100BD00080917A00806880937A001092C100E09141
:100BE000B201F091B30182E08083E091B201F09113
:100BF000B3011082E091AE01F091AF011082E0915B
:100C0000B001F091B10180E180831092BA01E091CE
:100C1000B601F091B70186E08083E091B401F091D4
:100C2000B501808180618083E091B401F091B501CC
:100C3000808188608083E091B401F091B50180816A
:100C400080688083E091B401F091B50180818F7D4F
:100C5000808380919901811105C00E94040181E087
:100C60008093990120E0222E20E0322E82EA91E04A
:100C70000E949901181619067CF482EA91E00E94FC
:100C800077018335910541F48DE191E00E947F0267
:100C900088E291E00E947F0280914302811103C0AB
:100CA00021E020934302C0903F02D0904002E090A8
:100CB0004102F090420220E030E048EC51E4C701EC
:100CC000B6010E94DF0B20E030E048E453E40E94CC
:100CD0004C0C9B01AC01C701B6010E94DF0B609375
:100CE0003F027093400280934102909342020E941F
:100CF0006D022AE939E949E15FE3DC016D917D91FB
:100D00008D919C910E94EA0A9B01AC0160913F0287
:100D10007091400280914102909142020E94E00B4A
:100D200060933F027093400280934102909342028D
:100D3000E0914B02F0914C0200914D0210914E0255
:100D4000309709F485C120813181428153816091BE
:100D50004F027091500280915102909152020E9474
:100D6000DF0B6B017C0120915302309154024091C2
:100D70005502509156020E94EA0A4B015C01809292
:100D80005F0290926002A0926102B0926202209192
:100D90005702309158024091590250915A02C701AE
:100DA000B6010E94EA0A20916302309164024091E8
:100DB0006502509166020E94E00B6BA77CA78DA78D
:100DC0009EA7609363027093640280936502909380
:100DD000660240906B0250906C0260906D027090C1
:100DE0006E0220E030E0A901C301B2010E94840A32
:100DF0008823D1F0A3019201C701B6010E94DF0B45
:100E00009B01AC0160915B0270915C0280915D027C
:100E100090915E020E94EA0A6093670270936802F2
:100E20008093690290936A02C0926B02D0926C0226
:100E3000E0926D02F0926E022BA53CA54DA55EA539
:100E4000C501B4010E94E00B209167023091680255
:100E50004091690250916A020E94E00B6B017C0193
:100E600020E030E0A9010E94BE0C18160CF0ECC086
:100E700020E030E040E85FE3C701B6010E94840A49
:100E800087FD06C0C12CD12C90E8E92E9FE3F92EF6
:100E9000F801C082D182E282F38280914302811103
:100EA00003C0B1E0B093430240913F025091400231
:100EB0006091410270914202CE0185960E94250305
:100EC00040916702509168026091690270916A02D4
:100ED000CE0101960E942503409163025091640265
:100EE0006091650270916602CE0107960E9425030B
:100EF00040915F02509160026091610270916202C4
:100F0000CE010D960E9425030E946D02FC014081D6
:100F1000518162817381CE0143960E9425034091E5
:100F20004F02509150026091510270915202CE01D5
:100F300049960E94250362E871E0CE014F960E9417
:100F4000F402BE016B5D7F4FCE014F960E9472038B
:100F50000E94D002BE01675E7F4F0E9472030E9412
:100F6000D002BE016D5E7F4F0E9472030E94D002CC
:100F7000BE01635F7F4F0E9472030E94D002BE01D8
:100F8000695F7F4F0E9472030E94D002BE016F5FB3
:100F90007F4F0E947203DC0114964D915C9115976E
:100FA0006D917C9182EA91E00E943B010E94770260
:100FB000CE014F960E94A503CE0149960E94A5033B
:100FC000CE0143960E94A503CE010D960E94A50373
:100FD000CE0107960E94A503CE0101960E94A503AB
:100FE0000E9448024B015C0184E6C82ED12CE12C02
:100FF000F12C0E944802681979098A099B09683E08
:10100000734081059105A8F3B1E0CB1AD108E1083E
:10101000F108E8EE8E0EE3E09E1EA11CB11CC11487
:10102000D104E104F10429F7CE0185960E94A503BD
:101030002114310409F41ACE0E94A501882309F471
:1010400015CE0E94000012CEC12CD12C760120CFEB
:10105000D8011D921D921D921C9213971ECFEF92E4
:101060000F931F93CF93DF93E80134E047FD34E102
:10107000042E000C550B57FF03C0519541955109A3
:10108000E32E022F242FAE010E944D08CE01DF91E6
:10109000CF911F910F91EF900895A9E0B0E0E3E5A3
:1010A000F8E00C94AE0B6A01F22EB02E102FFBE389
:1010B000AF2EA01608F41BE31F5F012F27E0AE013F
:1010C0004F5F5F4F0E94AC09BC018981982F9970D6
:1010D000913009F43FC09BE2E1FC04C09E2D917069
:1010E000E0FC3AC05E2D5071E82FE87083FF46C0E7
:1010F00084E0911101C083E0EF2DE81B8F1508F00B
:10110000E0E0D6018E2F20E2552351F1992329F0FA
:10111000D6019C93C60101966C0196012D5F3F4F4D
:10112000E2FE24C08EE4D6018C9391E411969C9348
:10113000119712968C93D9018E2F90E281111BC0CA
:10114000E20FF32FF11D10828EEF9FEF2996ECE056
:101150000C94CA0B9DE2C6CF90E2C4CF2D93815070
:101160008111FCCFCE0ED11CE0E0D0CF8EE6D601AF
:101170008C9391E6DBCF9D938150E0CF482F447054
:1011800082FF3DC084E0911101C083E08F1510F40F
:10119000EF2DE81BD6018E2F20E2552309F199236C
:1011A00029F0D6019C93C60101966C0196012D5F32
:1011B0003F4FE2FE1BC089E4D6018C938EE411966A
:1011C0008C93119786E412968C93D9018E2F90E21E
:1011D000882309F4B5CF9D938150FACF2D93815088
:1011E0008111FCCFCE0ED11CE0E0D9CF89E6D6012B
:1011F0008C938EE611968C93119786E6E4CF9B0133
:1012000077FF02C030E020E0A1E0B0E0911102C021
:10121000B0E0A0E0F9013196AE0FBF1F8B2C912CEE
:10122000BB2009F461C05401EFEFAE1ABE0AAA0D4B
:10123000BB1DFA161B0619F014F04F2D4A1B511155
:1012400088C0E3FC59C07601A42FB0E2A1114FC0C1
:10125000C40ED11C992309F45BC040E0D60111965D
:10126000F60190836D01552309F448C0012F060F44
:101270009A81582F507184FF03C0913309F40150B3
:1012800010160CF047C0093008F008E0EEE2FE2E20
:101290005B01A01AB10885019194819491082F3FB8
:1012A000320729F4D601FC92F60131966F016217DC
:1012B000730794F1021713077CF5DB01A21BB30B34
:1012C000AA24A394B12CAC0EBD1EAA0DBB1D119671
:1012D0008C9121503109D601119628153905F4F069
:1012E000F60180836D01DBCFB12CA12CA0CFF701DB
:1012F000B1937F01A150AACF9111B0CFD601942F05
:1013000050E302C05D9391509111FCCFC40ED11CEB
:1013100040E0ACCF01E0BACF80E3DBCF62177307C8
:1013200031F4963388F4953311F4552369F0F601BE
:101330008083FD01842F90E2811108C0A40FB11DAC
:101340001C9290E080E002CF81E3F1CF9193815035
:10135000F3CF911183CF8ACF283008F027E03327CD
:10136000DA01990F311D87FD9160009661057105C5
:1013700039F432602E5F3D9330E32A95E1F708950A
:101380009F3F30F080387105610509F03C5F3C5F9C
:101390003D93913008F08068911DDF93CF931F93A8
:1013A0000F93FF92EF92192F987F9695E92F9695BC
:1013B0009695E90FFF27EE53FF4F99273327EE2429
:1013C000FF24A701E70105900894079428F4360F3D
:1013D000E71EF81E491F511D660F771F881F991FB2
:1013E0000694A1F70590079428F4E70EF81E491F0C
:1013F000561FC11D770F881F991F661F0694A1F7FE
:101400000590079428F4F80E491F561FC71FD11DD9
:10141000880F991F661F771F0694A1F70590079400
:1014200020F4490F561FC71FD81F990F661F771F3B
:10143000881F0694A9F784911095177041F0D695EE
:10144000C79557954795F794E7941A95C1F7E8E63D
:10145000F0E06894159015913591659195910590FE
:101460007FE27395E118F10A430B560BC90BD009C3
:10147000C0F7E10CF11E431F561FC91FD01D7EF49B
:10148000703311F48A95E6CFE894015030F0080FDC
:101490000AF40027021708F4202F2395022F7A332D
:1014A00028F079E37D932A95E9F710C07D932A957A
:1014B00089F6069497956795379517951794E118CF
:1014C000F10A430B560BC90BD00998F023957E9176
:1014D00073957A3308F070E37C932013B8F77E910C
:1014E00070617D9330F0839571E37D9370E32A956D
:1014F000E1F71124EF90FF900F911F91CF91DF91B1
:10150000992787FD909508950E94C60A08F481E006
:101510000895E89409C097FB3EF4909580957095E6
:1015200061957F4F8F4F9F4F9923A9F0F92F96E92F
:10153000BB279395F695879577956795B795F111A4
:10154000F8CFFAF4BB0F11F460FF1BC06F5F7F4F41
:101550008F4F9F4F16C0882311F096E911C0772353
:1015600021F09EE8872F762F05C0662371F096E85C
:10157000862F70E060E02AF09A95660F771F881F2B
:10158000DAF7880F9695879597F90895990F0008CF
:10159000550FAA0BE0E8FEEF16161706E807F90745
:1015A000C0F012161306E407F50798F0621B730BE0
:1015B000840B950B39F40A2661F0232B242B252B61
:1015C00021F408950A2609F4A140A6958FEF811D04
:1015D000811D08950E94FD0A0C946E0B0E94600B01
:1015E00038F00E94670B20F0952311F00C94570BF4
:1015F0000C945D0B11240C94A20B0E947F0B70F3D2
:10160000959FC1F3950F50E0551F629FF001729FA7
:10161000BB27F00DB11D639FAA27F00DB11DAA1FB6
:10162000649F6627B00DA11D661F829F2227B00D03
:10163000A11D621F739FB00DA11D621F839FA00D8E
:10164000611D221F749F3327A00D611D231F849FDE
:10165000600D211D822F762F6A2F11249F57504035
:101660009AF0F1F088234AF0EE0FFF1FBB1F661FB0
:10167000771F881F91505040A9F79E3F510580F079
:101680000C94570B0C94A20B5F3FE4F3983ED4F3F9
:10169000869577956795B795F795E7959F5FC1F71D
:1016A000FE2B880F911D9695879597F9089597F9C8
:1016B0009F6780E870E060E008959FEF80EC0895F8
:1016C00000240A9416161706180609060895002421
:1016D0000A9412161306140605060895092E03949B
:1016E000000C11F4882352F0BB0F40F4BF2B11F40F
:1016F00060FF04C06F5F7F4F8F4F9F4F089557FD6E
:101700009058440F551F59F05F3F71F04795880F6F
:1017100097FB991F61F09F3F79F087950895121606
:1017200013061406551FF2CF4695F1DF08C01616B2
:1017300017061806991FF1CF869571056105089463
:101740000895E894BB2766277727CB0197F908957A
:101750002F923F924F925F926F927F928F929F92C1
:10176000AF92BF92CF92DF92EF92FF920F931F93AF
:10177000CF93DF93CDB7DEB7CA1BDB0B0FB6F89460
:10178000DEBF0FBECDBF09942A88398848885F84A0
:101790006E847D848C849B84AA84B984C884DF8011
:1017A000EE80FD800C811B81AA81B981CE0FD11DF5
:1017B0000FB6F894DEBF0FBECDBFED0108955058AF
:1017C000BB27AA270E94F70B0C946E0B0E94600B9C
:1017D00038F00E94670B20F039F49F3F19F426F48B
:1017E0000C945D0B0EF4E095E7FB0C94570BE92F7E
:1017F0000E947F0B58F3BA17620773078407950797
:1018000020F079F4A6F50C94A10B0EF4E0950B2EC4
:10181000BA2FA02D0B01B90190010C01CA01A00142
:101820001124FF27591B99F0593F50F4503E68F19D
:101830001A16F040A22F232F342F4427585FF3CFDE
:10184000469537952795A795F0405395C9F77EF4AF
:101850001F16BA0B620B730B840BBAF09150A1F0F8
:10186000FF0FBB1F661F771F881FC2F70EC0BA0F7E
:10187000621F731F841F48F4879577956795B79506
:10188000F7959E3F08F0B0CF9395880F08F0992701
:10189000EE0F9795879508950E94600C0C946E0B3F
:1018A0000E94670B58F00E94600B40F029F45F3FE4
:1018B00029F00C94570B51110C94A20B0C945D0B56
:1018C0000E947F0B68F39923B1F3552391F3951B85
:1018D000550BBB27AA2762177307840738F09F5F51
:1018E0005F4F220F331F441FAA1FA9F335D00E2EBE
:1018F0003AF0E0E832D091505040E695001CCAF72B
:101900002BD0FE2F29D0660F771F881FBB1F2617ED
:1019100037074807AB07B0E809F0BB0B802DBF01C4
:10192000FF2793585F4F3AF09E3F510578F00C9493
:10193000570B0C94A20B5F3FE4F3983ED4F38695CB
:1019400077956795B795F7959F5FC9F7880F911DB4
:101950009695879597F90895E1E0660F771F881FA0
:10196000BB1F621773078407BA0720F0621B730B53
:10197000840BBA0BEE1F88F7E09508950E94C60A03
:1019800008F48FEF0895EE0FFF1F0590F491E02DFE
:1019900009940F931F93CF93DF938230910510F436
:1019A00082E090E0E0917102F091720230E020E07C
:1019B000B0E0A0E0309799F42115310509F44AC050
:1019C000281B390B24303105D8F58A819B8161159C
:1019D000710589F1FB0193838283FE0111C040816F
:1019E00051810281138148175907E0F048175907C0
:1019F00099F4109761F012960C93129713961C931A
:101A00003296CF01DF91CF911F910F9108950093EE
:101A1000710210937202F4CF2115310551F0421773
:101A2000530738F0A901DB019A01BD01DF01F8017C
:101A3000C1CFEF01F9CF9093720280937102CDCFA5
:101A4000FE01E20FF31F81939193225031093983F4
:101A50002883D7CF20916F0230917002232B41F45D
:101A600020910201309103013093700220936F02A4
:101A700020910001309101012115310541F42DB76C
:101A80003EB74091040150910501241B350BE091B4
:101A90006F02F0917002E217F307A0F42E1B3F0BC8
:101AA0002817390778F0AC014E5F5F4F24173507D0
:101AB00048F04E0F5F1F5093700240936F02819366
:101AC00091939FCFF0E0E0E09CCFCF93DF9300971E
:101AD000E9F0FC01329713821282A0917102B09159
:101AE0007202ED0130E020E01097A1F420813181F5
:101AF000820F931F20916F023091700228173907CF
:101B000009F061C0F0937002E0936F02DF91CF9112
:101B10000895EA01CE17DF07E8F54A815B819E014F
:101B200041155105B1F7E901FB83EA8349915991C8
:101B3000C40FD51FEC17FD0761F4808191810296D7
:101B4000840F951FE90199838883828193819B8308
:101B50008A83F0E0E0E012968D919C9113970097B4
:101B6000B9F52D913C911197CD010296820F931FEB
:101B700020916F02309170022817390739F630979B
:101B800051F51092720210927102B0937002A093FC
:101B90006F02BCCFD383C28340815181840F951FD4
:101BA000C817D90761F44E5F5F4F88819981480F4C
:101BB000591F518340838A819B819383828321159E
:101BC000310509F0B0CFF0937202E09371029ECF1D
:101BD000FD01DC01C0CF13821282D7CFB0E0A0E0BC
:101BE000E4EFFDE00C94AA0B8C01009751F4CB01BB
:101BF0000E94C90C8C01C801CDB7DEB7E0E10C949E
:101C0000C60BFC01E60FF71F9C0122503109E217B9
:101C1000F30708F49DC0D901CD91DC911197C61747
:101C2000D70798F0C530D10530F3CE010497861759
:101C3000970708F3C61BD70B2297C193D1936D93D7
:101C40007C93CF010E94650DD6CF5B01AC1ABD0A13
:101C50004C018C0E9D1EA0917102B0917202512C0C
:101C6000412CF12CE12C109731F580916F0290916D
:101C700070028815990509F05CC04616570608F0F1
:101C800058C08091000190910101009741F48DB7F7
:101C90009EB74091040150910501841B950BE817F4
:101CA000F90708F055C0F0937002E0936F02F90154
:101CB00071836083A0CF8D919C91119712966C9047
:101CC000129713967C901397A815B90559F56C01D6
:101CD00042E0C40ED11CCA14DB0420F1AC014A1945
:101CE0005B09DA011296159780F062827382518344
:101CF0004083D9016D937C93E114F10471F0D70115
:101D00001396FC93EE93129776CF22968C0F9D1F1D
:101D1000F90191838083F301EFCFF0937202E09396
:101D2000710269CF4816590608F42C017D01D301D0
:101D30009ACFCB010E94C90C7C01009749F0AE01FB
:101D4000B8010E94AB0EC8010E94650D870153CFF8
:101D500010E000E050CFFB01DC0102C001900D92C9
:101D600041505040D8F70895FB01DC0101900D92DD
:0A1D70000020E1F70895F894FFCF7A
:101D7A0000007302800000000000DB013B016801E3
:101D8A002802990177018B010D0A003B00244E2499
:101D9A003B426F696C6572002443243B74656D7025
:101DAA00657261747572653B74656D706572617494
:101DBA007572655F726571756972653B6865617494
:101DCA0065723B7069645F70726F706F7274696F6D
:101DDA006E616C3B7069645F696E74656772616C91
:101DEA003B7069645F646966666572656E74696191
:041DFA006C00240055
:00000001FF
